{
  "_format": "hh-sol-artifact-1",
  "contractName": "PaymentEscrow",
  "sourceName": "contracts/PaymentEscrow.sol",
  "abi": [
    {
      "inputs": [],
      "stateMutability": "nonpayable",
      "type": "constructor"
    },
    {
      "stateMutability": "payable",
      "type": "fallback"
    },
    {
      "inputs": [],
      "name": "agreementCounter",
      "outputs": [
        {
          "internalType": "uint256",
          "name": "",
          "type": "uint256"
        }
      ],
      "stateMutability": "view",
      "type": "function"
    },
    {
      "inputs": [
        {
          "internalType": "uint256",
          "name": "_agreementID",
          "type": "uint256"
        }
      ],
      "name": "checkDelinquency",
      "outputs": [],
      "stateMutability": "nonpayable",
      "type": "function"
    },
    {
      "inputs": [],
      "name": "contractBalance",
      "outputs": [
        {
          "internalType": "uint256",
          "name": "",
          "type": "uint256"
        }
      ],
      "stateMutability": "view",
      "type": "function"
    },
    {
      "inputs": [
        {
          "internalType": "uint256",
          "name": "_ether",
          "type": "uint256"
        }
      ],
      "name": "deposit",
      "outputs": [],
      "stateMutability": "payable",
      "type": "function"
    },
    {
      "inputs": [
        {
          "internalType": "uint256",
          "name": "_agreementID",
          "type": "uint256"
        }
      ],
      "name": "depositSecurity",
      "outputs": [],
      "stateMutability": "payable",
      "type": "function"
    },
    {
      "inputs": [
        {
          "internalType": "uint256",
          "name": "",
          "type": "uint256"
        }
      ],
      "name": "escrows",
      "outputs": [
        {
          "internalType": "uint256",
          "name": "agreementID",
          "type": "uint256"
        },
        {
          "internalType": "address payable",
          "name": "wagie",
          "type": "address"
        },
        {
          "internalType": "address payable",
          "name": "bigMoney",
          "type": "address"
        },
        {
          "internalType": "address",
          "name": "tokenAddress",
          "type": "address"
        },
        {
          "internalType": "uint256",
          "name": "amount",
          "type": "uint256"
        },
        {
          "internalType": "uint256",
          "name": "securityDepositAmount",
          "type": "uint256"
        },
        {
          "internalType": "uint256",
          "name": "totalDepositValueWei",
          "type": "uint256"
        }
      ],
      "stateMutability": "view",
      "type": "function"
    },
    {
      "inputs": [
        {
          "internalType": "uint256",
          "name": "_agreementID",
          "type": "uint256"
        }
      ],
      "name": "getAgreement",
      "outputs": [
        {
          "components": [
            {
              "internalType": "uint256",
              "name": "agreementID",
              "type": "uint256"
            },
            {
              "internalType": "address payable",
              "name": "wagie",
              "type": "address"
            },
            {
              "internalType": "address payable",
              "name": "bigMoney",
              "type": "address"
            },
            {
              "internalType": "address",
              "name": "tokenAddress",
              "type": "address"
            },
            {
              "internalType": "uint256",
              "name": "amount",
              "type": "uint256"
            },
            {
              "internalType": "uint256",
              "name": "securityDepositAmount",
              "type": "uint256"
            },
            {
              "internalType": "uint256",
              "name": "totalDepositValueWei",
              "type": "uint256"
            }
          ],
          "internalType": "struct PaymentEscrow.Escrow",
          "name": "",
          "type": "tuple"
        },
        {
          "components": [
            {
              "internalType": "uint256",
              "name": "agreementID",
              "type": "uint256"
            },
            {
              "internalType": "uint256",
              "name": "numberOfPayments",
              "type": "uint256"
            },
            {
              "internalType": "uint256",
              "name": "premiumRate",
              "type": "uint256"
            },
            {
              "internalType": "uint256",
              "name": "securityDepositRate",
              "type": "uint256"
            },
            {
              "internalType": "uint256",
              "name": "paymentAmount",
              "type": "uint256"
            },
            {
              "internalType": "uint256",
              "name": "paymentPeriods",
              "type": "uint256"
            },
            {
              "internalType": "uint256",
              "name": "gracePeriod",
              "type": "uint256"
            },
            {
              "internalType": "uint256",
              "name": "paymentsMade",
              "type": "uint256"
            },
            {
              "internalType": "uint256",
              "name": "nextPaymentDue",
              "type": "uint256"
            },
            {
              "internalType": "bool",
              "name": "delinquent",
              "type": "bool"
            }
          ],
          "internalType": "struct PaymentEscrow.Payment",
          "name": "",
          "type": "tuple"
        }
      ],
      "stateMutability": "nonpayable",
      "type": "function"
    },
    {
      "inputs": [
        {
          "internalType": "address",
          "name": "priceFeed",
          "type": "address"
        }
      ],
      "name": "getLatestPrice",
      "outputs": [
        {
          "internalType": "int256",
          "name": "",
          "type": "int256"
        }
      ],
      "stateMutability": "view",
      "type": "function"
    },
    {
      "inputs": [
        {
          "internalType": "address payable",
          "name": "_wagie",
          "type": "address"
        },
        {
          "internalType": "address",
          "name": "_tokenAddress",
          "type": "address"
        },
        {
          "internalType": "uint256",
          "name": "_amount",
          "type": "uint256"
        }
      ],
      "name": "initializeEscrow",
      "outputs": [],
      "stateMutability": "nonpayable",
      "type": "function"
    },
    {
      "inputs": [
        {
          "internalType": "uint256",
          "name": "_escrowID",
          "type": "uint256"
        },
        {
          "internalType": "uint256",
          "name": "_numberOfPayments",
          "type": "uint256"
        },
        {
          "internalType": "uint256",
          "name": "_premiumRate",
          "type": "uint256"
        },
        {
          "internalType": "uint256",
          "name": "_securityDepositRate",
          "type": "uint256"
        },
        {
          "internalType": "uint256",
          "name": "_paymentPeriod",
          "type": "uint256"
        },
        {
          "internalType": "uint256",
          "name": "_gracePeriod",
          "type": "uint256"
        }
      ],
      "name": "initializePayment",
      "outputs": [],
      "stateMutability": "nonpayable",
      "type": "function"
    },
    {
      "inputs": [
        {
          "internalType": "uint256",
          "name": "_agreementID",
          "type": "uint256"
        }
      ],
      "name": "makePayment",
      "outputs": [],
      "stateMutability": "payable",
      "type": "function"
    },
    {
      "inputs": [
        {
          "internalType": "uint256",
          "name": "",
          "type": "uint256"
        }
      ],
      "name": "payments",
      "outputs": [
        {
          "internalType": "uint256",
          "name": "agreementID",
          "type": "uint256"
        },
        {
          "internalType": "uint256",
          "name": "numberOfPayments",
          "type": "uint256"
        },
        {
          "internalType": "uint256",
          "name": "premiumRate",
          "type": "uint256"
        },
        {
          "internalType": "uint256",
          "name": "securityDepositRate",
          "type": "uint256"
        },
        {
          "internalType": "uint256",
          "name": "paymentAmount",
          "type": "uint256"
        },
        {
          "internalType": "uint256",
          "name": "paymentPeriods",
          "type": "uint256"
        },
        {
          "internalType": "uint256",
          "name": "gracePeriod",
          "type": "uint256"
        },
        {
          "internalType": "uint256",
          "name": "paymentsMade",
          "type": "uint256"
        },
        {
          "internalType": "uint256",
          "name": "nextPaymentDue",
          "type": "uint256"
        },
        {
          "internalType": "bool",
          "name": "delinquent",
          "type": "bool"
        }
      ],
      "stateMutability": "view",
      "type": "function"
    },
    {
      "inputs": [
        {
          "internalType": "uint256",
          "name": "_agreementID",
          "type": "uint256"
        }
      ],
      "name": "terminateAgreement",
      "outputs": [],
      "stateMutability": "nonpayable",
      "type": "function"
    },
    {
      "stateMutability": "payable",
      "type": "receive"
    }
  ],
  "bytecode": "0x608060405234801561001057600080fd5b507342585ed362b3f1bca95c640fdff35ef899212734600260006101000a81548173ffffffffffffffffffffffffffffffffffffffff021916908373ffffffffffffffffffffffffffffffffffffffff16021790555073c59e3633baac79493d908e63626716e204a45edf600460006101000a81548173ffffffffffffffffffffffffffffffffffffffff021916908373ffffffffffffffffffffffffffffffffffffffff16021790555073694aa1769357215de4fac081bf1f309adc325306600360006101000a81548173ffffffffffffffffffffffffffffffffffffffff021916908373ffffffffffffffffffffffffffffffffffffffff16021790555061247e8061011f6000396000f3fe6080604052600436106100c65760003560e01c80634f9f6fe61161007f5780638b7afe2e116100595780638b7afe2e146102885780639a026924146102b3578063a1f36b5a146102dc578063b6b55f2514610305576100cd565b80634f9f6fe6146101e85780635114cb521461022657806387d8178914610242576100cd565b8063012f52ee146100cf57806314f79af71461011257806316345f181461013d578063163c64571461017a57806322aeddfd146101a35780633990b6f4146101bf576100cd565b366100cd57005b005b3480156100db57600080fd5b506100f660048036038101906100f191906118d3565b610321565b604051610109979695949392919061206a565b60405180910390f35b34801561011e57600080fd5b506101276103c3565b604051610134919061204f565b60405180910390f35b34801561014957600080fd5b50610164600480360381019061015f9190611832565b6103c9565b6040516101719190611f0a565b60405180910390f35b34801561018657600080fd5b506101a1600480360381019061019c919061185b565b61045f565b005b6101bd60048036038101906101b891906118d3565b610701565b005b3480156101cb57600080fd5b506101e660048036038101906101e191906118fc565b610731565b005b3480156101f457600080fd5b5061020f600480360381019061020a91906118d3565b610941565b60405161021d929190612025565b60405180910390f35b610240600480360381019061023b91906118d3565b610b45565b005b34801561024e57600080fd5b50610269600480360381019061026491906118d3565b611185565b60405161027f9a999897969594939291906120d9565b60405180910390f35b34801561029457600080fd5b5061029d6111e6565b6040516102aa919061204f565b60405180910390f35b3480156102bf57600080fd5b506102da60048036038101906102d591906118d3565b6111ec565b005b3480156102e857600080fd5b5061030360048036038101906102fe91906118d3565b6115a1565b005b61031f600480360381019061031a91906118d3565b611681565b005b60056020528060005260406000206000915090508060000154908060010160009054906101000a900473ffffffffffffffffffffffffffffffffffffffff16908060020160009054906101000a900473ffffffffffffffffffffffffffffffffffffffff16908060030160009054906101000a900473ffffffffffffffffffffffffffffffffffffffff16908060040154908060050154908060060154905087565b60015481565b60008082905060008173ffffffffffffffffffffffffffffffffffffffff1663feaf968c6040518163ffffffff1660e01b815260040160a06040518083038186803b15801561041757600080fd5b505afa15801561042b573d6000803e3d6000fd5b505050506040513d601f19601f8201168201806040525081019061044f9190611985565b5050509150508092505050919050565b600060015490506040518060e001604052808281526020018573ffffffffffffffffffffffffffffffffffffffff1681526020013373ffffffffffffffffffffffffffffffffffffffff1681526020018473ffffffffffffffffffffffffffffffffffffffff168152602001838152602001600081526020016000815250600560008381526020019081526020016000206000820151816000015560208201518160010160006101000a81548173ffffffffffffffffffffffffffffffffffffffff021916908373ffffffffffffffffffffffffffffffffffffffff16021790555060408201518160020160006101000a81548173ffffffffffffffffffffffffffffffffffffffff021916908373ffffffffffffffffffffffffffffffffffffffff16021790555060608201518160030160006101000a81548173ffffffffffffffffffffffffffffffffffffffff021916908373ffffffffffffffffffffffffffffffffffffffff1602179055506080820151816004015560a0820151816005015560c082015181600601559050508273ffffffffffffffffffffffffffffffffffffffff166323b872dd3330856040518463ffffffff1660e01b815260040161062d93929190611ed3565b602060405180830381600087803b15801561064757600080fd5b505af115801561065b573d6000803e3d6000fd5b505050506040513d601f19601f8201168201806040525081019061067f91906118aa565b506106ab600260009054906101000a900473ffffffffffffffffffffffffffffffffffffffff166103c9565b670de0b6b3a7640000836106bf91906121dc565b6106c9919061220d565b6005600083815260200190815260200160002060060181905550600160008154809291906106f690612317565b919050555050505050565b346005600083815260200190815260200160002060050160008282546107279190612186565b9250508190555050565b6005600087815260200190815260200160002060020160009054906101000a900473ffffffffffffffffffffffffffffffffffffffff1673ffffffffffffffffffffffffffffffffffffffff163373ffffffffffffffffffffffffffffffffffffffff16146107d5576040517f08c379a00000000000000000000000000000000000000000000000000000000081526004016107cc90611f25565b60405180910390fd5b60008560056000898152602001908152602001600020600601546107f991906121dc565b905060006064868361080b919061220d565b61081591906121dc565b9050600060648684610827919061220d565b61083191906121dc565b905060008183856108429190612186565b61084c9190612186565b90506040518061014001604052808b81526020018a81526020018981526020018881526020018281526020018781526020018681526020016000815260200187426108979190612186565b815260200160001515815250600660008c8152602001908152602001600020600082015181600001556020820151816001015560408201518160020155606082015181600301556080820151816004015560a0820151816005015560c0820151816006015560e0820151816007015561010082015181600801556101208201518160090160006101000a81548160ff02191690831515021790555090505050505050505050505050565b6109496116cb565b61095161174a565b61095a836115a1565b6005600084815260200190815260200160002060066000858152602001908152602001600020816040518060e0016040529081600082015481526020016001820160009054906101000a900473ffffffffffffffffffffffffffffffffffffffff1673ffffffffffffffffffffffffffffffffffffffff1673ffffffffffffffffffffffffffffffffffffffff1681526020016002820160009054906101000a900473ffffffffffffffffffffffffffffffffffffffff1673ffffffffffffffffffffffffffffffffffffffff1673ffffffffffffffffffffffffffffffffffffffff1681526020016003820160009054906101000a900473ffffffffffffffffffffffffffffffffffffffff1673ffffffffffffffffffffffffffffffffffffffff1673ffffffffffffffffffffffffffffffffffffffff1681526020016004820154815260200160058201548152602001600682015481525050915080604051806101400160405290816000820154815260200160018201548152602001600282015481526020016003820154815260200160048201548152602001600582015481526020016006820154815260200160078201548152602001600882015481526020016009820160009054906101000a900460ff161515151581525050905091509150915091565b6005600082815260200190815260200160002060010160009054906101000a900473ffffffffffffffffffffffffffffffffffffffff1673ffffffffffffffffffffffffffffffffffffffff163373ffffffffffffffffffffffffffffffffffffffff1614610be9576040517f08c379a0000000000000000000000000000000000000000000000000000000008152600401610be090611fe5565b60405180910390fd5b60066000828152602001908152602001600020600401543414610c41576040517f08c379a0000000000000000000000000000000000000000000000000000000008152600401610c3890611f45565b60405180910390fd5b6006600082815260200190815260200160002060010154600660008381526020019081526020016000206007015410610caf576040517f08c379a0000000000000000000000000000000000000000000000000000000008152600401610ca690611f65565b60405180910390fd5b6000600560008381526020019081526020016000206004015411610d08576040517f08c379a0000000000000000000000000000000000000000000000000000000008152600401610cff90611f85565b60405180910390fd5b600060066000838152602001908152602001600020600101546005600084815260200190815260200160002060060154610d4291906121dc565b905060006064600660008581526020019081526020016000206002015483610d6a919061220d565b610d7491906121dc565b905060006064600660008681526020019081526020016000206003015484610d9c919061220d565b610da691906121dc565b90506000818385610db79190612186565b610dc19190612186565b9050803414610e05576040517f08c379a0000000000000000000000000000000000000000000000000000000008152600401610dfc90611fa5565b60405180910390fd5b6005600086815260200190815260200160002060020160009054906101000a900473ffffffffffffffffffffffffffffffffffffffff1673ffffffffffffffffffffffffffffffffffffffff166108fc8486610e619190612186565b9081150290604051600060405180830381858888f19350505050158015610e8c573d6000803e3d6000fd5b503073ffffffffffffffffffffffffffffffffffffffff166108fc839081150290604051600060405180830381858888f19350505050158015610ed3573d6000803e3d6000fd5b5081600560008781526020019081526020016000206005016000828254610efa9190612186565b92505081905550600660008681526020019081526020016000206007016000815480929190610f2890612317565b9190505550600660008681526020019081526020016000206001015460066000878152602001908152602001600020600701541415611141576005600086815260200190815260200160002060030160009054906101000a900473ffffffffffffffffffffffffffffffffffffffff1673ffffffffffffffffffffffffffffffffffffffff1663a9059cbb6005600088815260200190815260200160002060010160009054906101000a900473ffffffffffffffffffffffffffffffffffffffff1660056000898152602001908152602001600020600401546040518363ffffffff1660e01b815260040161101e929190611eaa565b602060405180830381600087803b15801561103857600080fd5b505af115801561104c573d6000803e3d6000fd5b505050506040513d601f19601f8201168201806040525081019061107091906118aa565b50600060056000878152602001908152602001600020600401819055506005600086815260200190815260200160002060010160009054906101000a900473ffffffffffffffffffffffffffffffffffffffff1673ffffffffffffffffffffffffffffffffffffffff166108fc60056000888152602001908152602001600020600501549081150290604051600060405180830381858888f1935050505015801561111f573d6000803e3d6000fd5b506000600560008781526020019081526020016000206005018190555061117e565b6006600086815260200190815260200160002060050154426111639190612186565b60066000878152602001908152602001600020600801819055505b5050505050565b60066020528060005260406000206000915090508060000154908060010154908060020154908060030154908060040154908060050154908060060154908060070154908060080154908060090160009054906101000a900460ff1690508a565b60005481565b600660008281526020019081526020016000206001015460066000838152602001908152602001600020600701541061125a576040517f08c379a000000000000000000000000000000000000000000000000000000000815260040161125190611f65565b60405180910390fd5b60006005600083815260200190815260200160002060040154116112b3576040517f08c379a00000000000000000000000000000000000000000000000000000000081526004016112aa90612005565b60405180910390fd5b6112bc816115a1565b6005600082815260200190815260200160002060020160009054906101000a900473ffffffffffffffffffffffffffffffffffffffff1673ffffffffffffffffffffffffffffffffffffffff163373ffffffffffffffffffffffffffffffffffffffff1614611360576040517f08c379a000000000000000000000000000000000000000000000000000000000815260040161135790611f25565b60405180910390fd5b6006600082815260200190815260200160002060090160009054906101000a900460ff166113c3576040517f08c379a00000000000000000000000000000000000000000000000000000000081526004016113ba90611fc5565b60405180910390fd5b6005600082815260200190815260200160002060030160009054906101000a900473ffffffffffffffffffffffffffffffffffffffff1673ffffffffffffffffffffffffffffffffffffffff1663a9059cbb6005600084815260200190815260200160002060020160009054906101000a900473ffffffffffffffffffffffffffffffffffffffff1660056000858152602001908152602001600020600401546040518363ffffffff1660e01b8152600401611480929190611eaa565b602060405180830381600087803b15801561149a57600080fd5b505af11580156114ae573d6000803e3d6000fd5b505050506040513d601f19601f820116820180604052508101906114d291906118aa565b50600060056000838152602001908152602001600020600401819055506005600082815260200190815260200160002060020160009054906101000a900473ffffffffffffffffffffffffffffffffffffffff1673ffffffffffffffffffffffffffffffffffffffff166108fc60056000848152602001908152602001600020600501549081150290604051600060405180830381858888f19350505050158015611581573d6000803e3d6000fd5b506000600560008381526020019081526020016000206005018190555050565b600660008281526020019081526020016000206001015460066000838152602001908152602001600020600701541061160f576040517f08c379a000000000000000000000000000000000000000000000000000000000815260040161160690611f65565b60405180910390fd5b600660008281526020019081526020016000206006015460066000838152602001908152602001600020600801546116479190612186565b42111561167e5760016006600083815260200190815260200160002060090160006101000a81548160ff0219169083151502179055505b50565b3073ffffffffffffffffffffffffffffffffffffffff166108fc829081150290604051600060405180830381858888f193505050501580156116c7573d6000803e3d6000fd5b5050565b6040518060e0016040528060008152602001600073ffffffffffffffffffffffffffffffffffffffff168152602001600073ffffffffffffffffffffffffffffffffffffffff168152602001600073ffffffffffffffffffffffffffffffffffffffff1681526020016000815260200160008152602001600081525090565b6040518061014001604052806000815260200160008152602001600081526020016000815260200160008152602001600081526020016000815260200160008152602001600081526020016000151581525090565b6000813590506117ae816123be565b92915050565b6000813590506117c3816123d5565b92915050565b6000815190506117d8816123ec565b92915050565b6000815190506117ed81612403565b92915050565b6000813590506118028161241a565b92915050565b6000815190506118178161241a565b92915050565b60008151905061182c81612431565b92915050565b60006020828403121561184457600080fd5b60006118528482850161179f565b91505092915050565b60008060006060848603121561187057600080fd5b600061187e868287016117b4565b935050602061188f8682870161179f565b92505060406118a0868287016117f3565b9150509250925092565b6000602082840312156118bc57600080fd5b60006118ca848285016117c9565b91505092915050565b6000602082840312156118e557600080fd5b60006118f3848285016117f3565b91505092915050565b60008060008060008060c0878903121561191557600080fd5b600061192389828a016117f3565b965050602061193489828a016117f3565b955050604061194589828a016117f3565b945050606061195689828a016117f3565b935050608061196789828a016117f3565b92505060a061197889828a016117f3565b9150509295509295509295565b600080600080600060a0868803121561199d57600080fd5b60006119ab8882890161181d565b95505060206119bc888289016117de565b94505060406119cd88828901611808565b93505060606119de88828901611808565b92505060806119ef8882890161181d565b9150509295509295909350565b611a05816122e1565b82525050565b611a1481612279565b82525050565b611a2381612279565b82525050565b611a3281612267565b82525050565b611a4181612267565b82525050565b611a508161228b565b82525050565b611a5f8161228b565b82525050565b611a6e81612297565b82525050565b6000611a81602483612175565b91507f4f6e6c79206269674d6f6e65792063616e2063616c6c20746869732066756e6360008301527f74696f6e000000000000000000000000000000000000000000000000000000006020830152604082019050919050565b6000611ae7601883612175565b91507f496e636f7272656374207061796d656e7420616d6f756e7400000000000000006000830152602082019050919050565b6000611b27601183612175565b91507f416c6c205061796d656e7473204d6164650000000000000000000000000000006000830152602082019050919050565b6000611b67604583612175565b91507f506c6561736520636f6e746163742066696e616e63696572207265676172646960008301527f6e6720616e206973737565207769746820546f6b656e20457363726f7720416d60208301527f6f756e742e0000000000000000000000000000000000000000000000000000006040830152606082019050919050565b6000611bf3602083612175565b91507f7468657265206973206170706172656e746c792061206d617468206572726f726000830152602082019050919050565b6000611c33602b83612175565b91507f43616e6e6f74207465726d696e6174652061206e6f6e2d64656c696e7175656e60008301527f742061677265656d656e740000000000000000000000000000000000000000006020830152604082019050919050565b6000611c99602183612175565b91507f4f6e6c792077616769652063616e2063616c6c20746869732066756e6374696f60008301527f6e000000000000000000000000000000000000000000000000000000000000006020830152604082019050919050565b6000611cff601283612175565b91507f41677265656d656e7420697320656d70747900000000000000000000000000006000830152602082019050919050565b60e082016000820151611d486000850182611e8c565b506020820151611d5b6020850182611a0b565b506040820151611d6e6040850182611a0b565b506060820151611d816060850182611a29565b506080820151611d946080850182611e8c565b5060a0820151611da760a0850182611e8c565b5060c0820151611dba60c0850182611e8c565b50505050565b61014082016000820151611dd76000850182611e8c565b506020820151611dea6020850182611e8c565b506040820151611dfd6040850182611e8c565b506060820151611e106060850182611e8c565b506080820151611e236080850182611e8c565b5060a0820151611e3660a0850182611e8c565b5060c0820151611e4960c0850182611e8c565b5060e0820151611e5c60e0850182611e8c565b50610100820151611e71610100850182611e8c565b50610120820151611e86610120850182611a47565b50505050565b611e95816122c1565b82525050565b611ea4816122c1565b82525050565b6000604082019050611ebf60008301856119fc565b611ecc6020830184611e9b565b9392505050565b6000606082019050611ee86000830186611a38565b611ef56020830185611a38565b611f026040830184611e9b565b949350505050565b6000602082019050611f1f6000830184611a65565b92915050565b60006020820190508181036000830152611f3e81611a74565b9050919050565b60006020820190508181036000830152611f5e81611ada565b9050919050565b60006020820190508181036000830152611f7e81611b1a565b9050919050565b60006020820190508181036000830152611f9e81611b5a565b9050919050565b60006020820190508181036000830152611fbe81611be6565b9050919050565b60006020820190508181036000830152611fde81611c26565b9050919050565b60006020820190508181036000830152611ffe81611c8c565b9050919050565b6000602082019050818103600083015261201e81611cf2565b9050919050565b60006102208201905061203b6000830185611d32565b61204860e0830184611dc0565b9392505050565b60006020820190506120646000830184611e9b565b92915050565b600060e08201905061207f600083018a611e9b565b61208c6020830189611a1a565b6120996040830188611a1a565b6120a66060830187611a38565b6120b36080830186611e9b565b6120c060a0830185611e9b565b6120cd60c0830184611e9b565b98975050505050505050565b6000610140820190506120ef600083018d611e9b565b6120fc602083018c611e9b565b612109604083018b611e9b565b612116606083018a611e9b565b6121236080830189611e9b565b61213060a0830188611e9b565b61213d60c0830187611e9b565b61214a60e0830186611e9b565b612158610100830185611e9b565b612166610120830184611a56565b9b9a5050505050505050505050565b600082825260208201905092915050565b6000612191826122c1565b915061219c836122c1565b9250827fffffffffffffffffffffffffffffffffffffffffffffffffffffffffffffffff038211156121d1576121d0612360565b5b828201905092915050565b60006121e7826122c1565b91506121f2836122c1565b9250826122025761220161238f565b5b828204905092915050565b6000612218826122c1565b9150612223836122c1565b9250817fffffffffffffffffffffffffffffffffffffffffffffffffffffffffffffffff048311821515161561225c5761225b612360565b5b828202905092915050565b6000612272826122a1565b9050919050565b6000612284826122a1565b9050919050565b60008115159050919050565b6000819050919050565b600073ffffffffffffffffffffffffffffffffffffffff82169050919050565b6000819050919050565b600069ffffffffffffffffffff82169050919050565b60006122ec826122f3565b9050919050565b60006122fe82612305565b9050919050565b6000612310826122a1565b9050919050565b6000612322826122c1565b91507fffffffffffffffffffffffffffffffffffffffffffffffffffffffffffffffff82141561235557612354612360565b5b600182019050919050565b7f4e487b7100000000000000000000000000000000000000000000000000000000600052601160045260246000fd5b7f4e487b7100000000000000000000000000000000000000000000000000000000600052601260045260246000fd5b6123c781612267565b81146123d257600080fd5b50565b6123de81612279565b81146123e957600080fd5b50565b6123f58161228b565b811461240057600080fd5b50565b61240c81612297565b811461241757600080fd5b50565b612423816122c1565b811461242e57600080fd5b50565b61243a816122cb565b811461244557600080fd5b5056fea26469706673582212207979cd84dac10162239b725705b875eed113d972449fb97f28eb0a8f03f0424c64736f6c63430008000033",
  "linkReferences": {},
  "deployedLinkReferences": {}
}